{
  "contractName": "ForensicContract",
  "abi": [
    {
      "constant": true,
      "inputs": [
        {
          "internalType": "uint256",
          "name": "",
          "type": "uint256"
        }
      ],
      "name": "crime",
      "outputs": [
        {
          "internalType": "string",
          "name": "crime_id",
          "type": "string"
        },
        {
          "internalType": "string",
          "name": "exhibit_name",
          "type": "string"
        },
        {
          "internalType": "string",
          "name": "desc",
          "type": "string"
        },
        {
          "internalType": "string",
          "name": "timestamp",
          "type": "string"
        },
        {
          "internalType": "string",
          "name": "ipfsHash",
          "type": "string"
        }
      ],
      "payable": false,
      "stateMutability": "view",
      "type": "function"
    },
    {
      "constant": false,
      "inputs": [
        {
          "internalType": "string",
          "name": "_crime_id",
          "type": "string"
        },
        {
          "internalType": "string",
          "name": "_exhibit_name",
          "type": "string"
        },
        {
          "internalType": "string",
          "name": "_desc",
          "type": "string"
        },
        {
          "internalType": "string",
          "name": "_timestamp",
          "type": "string"
        }
      ],
      "name": "addReport",
      "outputs": [
        {
          "internalType": "uint256",
          "name": "",
          "type": "uint256"
        }
      ],
      "payable": false,
      "stateMutability": "nonpayable",
      "type": "function"
    },
    {
      "constant": true,
      "inputs": [],
      "name": "getPatCount",
      "outputs": [
        {
          "internalType": "uint256",
          "name": "",
          "type": "uint256"
        }
      ],
      "payable": false,
      "stateMutability": "view",
      "type": "function"
    },
    {
      "constant": true,
      "inputs": [
        {
          "internalType": "uint256",
          "name": "index",
          "type": "uint256"
        }
      ],
      "name": "getPat",
      "outputs": [
        {
          "internalType": "string",
          "name": "",
          "type": "string"
        },
        {
          "internalType": "string",
          "name": "",
          "type": "string"
        },
        {
          "internalType": "string",
          "name": "",
          "type": "string"
        },
        {
          "internalType": "string",
          "name": "",
          "type": "string"
        }
      ],
      "payable": false,
      "stateMutability": "view",
      "type": "function"
    },
    {
      "constant": true,
      "inputs": [],
      "name": "getAllForensicDetails",
      "outputs": [
        {
          "components": [
            {
              "internalType": "string",
              "name": "crime_id",
              "type": "string"
            },
            {
              "internalType": "string",
              "name": "exhibit_name",
              "type": "string"
            },
            {
              "internalType": "string",
              "name": "desc",
              "type": "string"
            },
            {
              "internalType": "string",
              "name": "timestamp",
              "type": "string"
            },
            {
              "internalType": "string",
              "name": "ipfsHash",
              "type": "string"
            }
          ],
          "internalType": "struct ForensicContract.CrimeDetails[]",
          "name": "",
          "type": "tuple[]"
        }
      ],
      "payable": false,
      "stateMutability": "view",
      "type": "function"
    }
  ],
  "bytecode": "0x608060405234801561001057600080fd5b506113d2806100206000396000f3fe608060405234801561001057600080fd5b50600436106100575760003560e01c80630ce7709c1461005c5780632511e3c01461008c578063d8ec988a146100aa578063e4f60609146100c8578063e9a51a77146100fb575b600080fd5b61007660048036036100719190810190610e7c565b61012f565b6040516100839190611236565b60405180910390f35b610094610239565b6040516100a19190611236565b60405180910390f35b6100b2610245565b6040516100bf919061113d565b60405180910390f35b6100e260048036036100dd9190810190610f3f565b61061e565b6040516100f2949392919061115f565b60405180910390f35b61011560048036036101109190810190610f3f565b61091b565b6040516101269594939291906111c0565b60405180910390f35b60008080548091906001016101449190610c56565b508460006001600080549050038154811061015b57fe5b9060005260206000209060050201600001908051906020019061017f929190610c88565b508360006001600080549050038154811061019657fe5b906000526020600020906005020160010190805190602001906101ba929190610c88565b50826000600160008054905003815481106101d157fe5b906000526020600020906005020160020190805190602001906101f5929190610c88565b508160006001600080549050038154811061020c57fe5b90600052602060002090600502016003019080519060200190610230929190610c88565b50949350505050565b60008080549050905090565b60608060008054905060405190808252806020026020018201604052801561028757816020015b610274610d08565b81526020019060019003908161026c5790505b50905060008090505b6000805490508110156106165760008082815481106102ab57fe5b90600052602060002090600502019050806040518060a0016040529081600082018054600181600116156101000203166002900480601f0160208091040260200160405190810160405280929190818152602001828054600181600116156101000203166002900480156103605780601f1061033557610100808354040283529160200191610360565b820191906000526020600020905b81548152906001019060200180831161034357829003601f168201915b50505050508152602001600182018054600181600116156101000203166002900480601f0160208091040260200160405190810160405280929190818152602001828054600181600116156101000203166002900480156104025780601f106103d757610100808354040283529160200191610402565b820191906000526020600020905b8154815290600101906020018083116103e557829003601f168201915b50505050508152602001600282018054600181600116156101000203166002900480601f0160208091040260200160405190810160405280929190818152602001828054600181600116156101000203166002900480156104a45780601f10610479576101008083540402835291602001916104a4565b820191906000526020600020905b81548152906001019060200180831161048757829003601f168201915b50505050508152602001600382018054600181600116156101000203166002900480601f0160208091040260200160405190810160405280929190818152602001828054600181600116156101000203166002900480156105465780601f1061051b57610100808354040283529160200191610546565b820191906000526020600020905b81548152906001019060200180831161052957829003601f168201915b50505050508152602001600482018054600181600116156101000203166002900480601f0160208091040260200160405190810160405280929190818152602001828054600181600116156101000203166002900480156105e85780601f106105bd576101008083540402835291602001916105e8565b820191906000526020600020905b8154815290600101906020018083116105cb57829003601f168201915b5050505050815250508383815181106105fd57fe5b6020026020010181905250508080600101915050610290565b508091505090565b6060806060806000858154811061063157fe5b90600052602060002090600502016000016000868154811061064f57fe5b90600052602060002090600502016001016000878154811061066d57fe5b90600052602060002090600502016002016000888154811061068b57fe5b9060005260206000209060050201600301838054600181600116156101000203166002900480601f0160208091040260200160405190810160405280929190818152602001828054600181600116156101000203166002900480156107315780601f1061070657610100808354040283529160200191610731565b820191906000526020600020905b81548152906001019060200180831161071457829003601f168201915b50505050509350828054600181600116156101000203166002900480601f0160208091040260200160405190810160405280929190818152602001828054600181600116156101000203166002900480156107cd5780601f106107a2576101008083540402835291602001916107cd565b820191906000526020600020905b8154815290600101906020018083116107b057829003601f168201915b50505050509250818054600181600116156101000203166002900480601f0160208091040260200160405190810160405280929190818152602001828054600181600116156101000203166002900480156108695780601f1061083e57610100808354040283529160200191610869565b820191906000526020600020905b81548152906001019060200180831161084c57829003601f168201915b50505050509150808054600181600116156101000203166002900480601f0160208091040260200160405190810160405280929190818152602001828054600181600116156101000203166002900480156109055780601f106108da57610100808354040283529160200191610905565b820191906000526020600020905b8154815290600101906020018083116108e857829003601f168201915b5050505050905093509350935093509193509193565b6000818154811061092857fe5b9060005260206000209060050201600091509050806000018054600181600116156101000203166002900480601f0160208091040260200160405190810160405280929190818152602001828054600181600116156101000203166002900480156109d45780601f106109a9576101008083540402835291602001916109d4565b820191906000526020600020905b8154815290600101906020018083116109b757829003601f168201915b505050505090806001018054600181600116156101000203166002900480601f016020809104026020016040519081016040528092919081815260200182805460018160011615610100020316600290048015610a725780601f10610a4757610100808354040283529160200191610a72565b820191906000526020600020905b815481529060010190602001808311610a5557829003601f168201915b505050505090806002018054600181600116156101000203166002900480601f016020809104026020016040519081016040528092919081815260200182805460018160011615610100020316600290048015610b105780601f10610ae557610100808354040283529160200191610b10565b820191906000526020600020905b815481529060010190602001808311610af357829003601f168201915b505050505090806003018054600181600116156101000203166002900480601f016020809104026020016040519081016040528092919081815260200182805460018160011615610100020316600290048015610bae5780601f10610b8357610100808354040283529160200191610bae565b820191906000526020600020905b815481529060010190602001808311610b9157829003601f168201915b505050505090806004018054600181600116156101000203166002900480601f016020809104026020016040519081016040528092919081815260200182805460018160011615610100020316600290048015610c4c5780601f10610c2157610100808354040283529160200191610c4c565b820191906000526020600020905b815481529060010190602001808311610c2f57829003601f168201915b5050505050905085565b815481835581811115610c8357600502816005028360005260206000209182019101610c829190610d37565b5b505050565b828054600181600116156101000203166002900490600052602060002090601f016020900481019282601f10610cc957805160ff1916838001178555610cf7565b82800160010185558215610cf7579182015b82811115610cf6578251825591602001919060010190610cdb565b5b509050610d049190610da6565b5090565b6040518060a0016040528060608152602001606081526020016060815260200160608152602001606081525090565b610da391905b80821115610d9f5760008082016000610d569190610dcb565b600182016000610d669190610dcb565b600282016000610d769190610dcb565b600382016000610d869190610dcb565b600482016000610d969190610dcb565b50600501610d3d565b5090565b90565b610dc891905b80821115610dc4576000816000905550600101610dac565b5090565b90565b50805460018160011615610100020316600290046000825580601f10610df15750610e10565b601f016020900490600052602060002090810190610e0f9190610da6565b5b50565b600082601f830112610e2457600080fd5b8135610e37610e328261127e565b611251565b91508082526020830160208301858383011115610e5357600080fd5b610e5e838284611325565b50505092915050565b600081359050610e7681611378565b92915050565b60008060008060808587031215610e9257600080fd5b600085013567ffffffffffffffff811115610eac57600080fd5b610eb887828801610e13565b945050602085013567ffffffffffffffff811115610ed557600080fd5b610ee187828801610e13565b935050604085013567ffffffffffffffff811115610efe57600080fd5b610f0a87828801610e13565b925050606085013567ffffffffffffffff811115610f2757600080fd5b610f3387828801610e13565b91505092959194509250565b600060208284031215610f5157600080fd5b6000610f5f84828501610e67565b91505092915050565b6000610f74838361109c565b905092915050565b6000610f87826112ba565b610f9181856112e8565b935083602082028501610fa3856112aa565b8060005b85811015610fdf5784840389528151610fc08582610f68565b9450610fcb836112db565b925060208a01995050600181019050610fa7565b50829750879550505050505092915050565b6000610ffc826112d0565b611006818561130a565b9350611016818560208601611334565b61101f81611367565b840191505092915050565b6000611035826112c5565b61103f81856112f9565b935061104f818560208601611334565b61105881611367565b840191505092915050565b600061106e826112c5565b611078818561130a565b9350611088818560208601611334565b61109181611367565b840191505092915050565b600060a08301600083015184820360008601526110b9828261102a565b915050602083015184820360208601526110d3828261102a565b915050604083015184820360408601526110ed828261102a565b91505060608301518482036060860152611107828261102a565b91505060808301518482036080860152611121828261102a565b9150508091505092915050565b6111378161131b565b82525050565b600060208201905081810360008301526111578184610f7c565b905092915050565b600060808201905081810360008301526111798187610ff1565b9050818103602083015261118d8186610ff1565b905081810360408301526111a18185610ff1565b905081810360608301526111b58184610ff1565b905095945050505050565b600060a08201905081810360008301526111da8188611063565b905081810360208301526111ee8187611063565b905081810360408301526112028186611063565b905081810360608301526112168185611063565b9050818103608083015261122a8184611063565b90509695505050505050565b600060208201905061124b600083018461112e565b92915050565b6000604051905081810181811067ffffffffffffffff8211171561127457600080fd5b8060405250919050565b600067ffffffffffffffff82111561129557600080fd5b601f19601f8301169050602081019050919050565b6000819050602082019050919050565b600081519050919050565b600081519050919050565b600081519050919050565b6000602082019050919050565b600082825260208201905092915050565b600082825260208201905092915050565b600082825260208201905092915050565b6000819050919050565b82818337600083830152505050565b60005b83811015611352578082015181840152602081019050611337565b83811115611361576000848401525b50505050565b6000601f19601f8301169050919050565b6113818161131b565b811461138c57600080fd5b5056fea365627a7a72315820c9ad511ed30af5aaaedcf98516d160d46a723afb84c3ccdb78205639870aa7266c6578706572696d656e74616cf564736f6c63430005100040",
  "source": "pragma solidity ^0.5.0;\npragma experimental ABIEncoderV2;\n\ncontract ForensicContract {  \n  struct CrimeDetails {\n        string crime_id;\n        string exhibit_name;\n        string desc;\n        string timestamp;\n        string ipfsHash;\n    }\n    \n    CrimeDetails[] public crime;    \n\n    function addReport(string memory _crime_id, string memory _exhibit_name, string memory _desc, string memory _timestamp) public returns(uint) {\n        crime.length++;\n        crime[crime.length-1].crime_id = _crime_id;\n        crime[crime.length-1].exhibit_name = _exhibit_name;\n        crime[crime.length-1].desc = _desc;\n        crime[crime.length-1].timestamp = _timestamp;\n        //crime[crime.length-1].ipfsHash = _ipfsHash;\n        //return crime.length;        \n    }\n    \n    function getPatCount() public view returns(uint) {\n        return crime.length;\n    }\n    \n    function getPat(uint index) public view returns (string memory, string memory, string memory,string memory)\n    {\n        return (crime[index].crime_id, crime[index].exhibit_name, crime[index].desc, crime[index].timestamp);\n    }\n    \n   function getAllForensicDetails() public view returns (CrimeDetails[] memory)\n    {\n        CrimeDetails[] memory id = new CrimeDetails[](crime.length);\n        for (uint i = 0; i < crime.length; i++) {\n            CrimeDetails storage tempCrime = crime[i];\n            id[i] = tempCrime;\n        }\n        return id;\n    }\n}\n",
  "sourcePath": "C:\\Users\\user\\Desktop\\Crime-Records-Blockchain-master\\contracts\\ForensicContract.sol",
  "compiler": {
    "name": "solc",
    "version": "0.5.16+commit.9c3226ce.Emscripten.clang"
  },
  "schemaVersion": "3.4.4",
  "updatedAt": "2022-01-14T08:32:08.718Z",
  "networkType": "ethereum",
  "devdoc": {
    "methods": {}
  },
  "userdoc": {
    "methods": {}
  }
}