{
  "contractName": "SimpleStorage",
  "abi": [
    {
      "constant": true,
      "inputs": [
        {
          "internalType": "uint256",
          "name": "",
          "type": "uint256"
        }
      ],
      "name": "crime",
      "outputs": [
        {
          "internalType": "uint256",
          "name": "crime_id",
          "type": "uint256"
        },
        {
          "internalType": "string",
          "name": "timestamp",
          "type": "string"
        },
        {
          "internalType": "string",
          "name": "offense_code",
          "type": "string"
        },
        {
          "internalType": "string",
          "name": "description",
          "type": "string"
        }
      ],
      "payable": false,
      "stateMutability": "view",
      "type": "function"
    },
    {
      "constant": false,
      "inputs": [
        {
          "internalType": "uint256",
          "name": "_crime_id",
          "type": "uint256"
        },
        {
          "internalType": "string",
          "name": "_timestamp",
          "type": "string"
        },
        {
          "internalType": "string",
          "name": "_offense_code",
          "type": "string"
        },
        {
          "internalType": "string",
          "name": "_description",
          "type": "string"
        }
      ],
      "name": "addCrimeReport",
      "outputs": [
        {
          "internalType": "uint256",
          "name": "",
          "type": "uint256"
        }
      ],
      "payable": false,
      "stateMutability": "nonpayable",
      "type": "function"
    },
    {
      "constant": true,
      "inputs": [],
      "name": "getCrimeCount",
      "outputs": [
        {
          "internalType": "uint256",
          "name": "",
          "type": "uint256"
        }
      ],
      "payable": false,
      "stateMutability": "view",
      "type": "function"
    },
    {
      "constant": true,
      "inputs": [
        {
          "internalType": "uint256",
          "name": "index",
          "type": "uint256"
        }
      ],
      "name": "getCrimeBlock",
      "outputs": [
        {
          "internalType": "uint256",
          "name": "",
          "type": "uint256"
        },
        {
          "internalType": "string",
          "name": "",
          "type": "string"
        },
        {
          "internalType": "string",
          "name": "",
          "type": "string"
        },
        {
          "internalType": "string",
          "name": "",
          "type": "string"
        }
      ],
      "payable": false,
      "stateMutability": "view",
      "type": "function"
    },
    {
      "constant": true,
      "inputs": [],
      "name": "getAllCrimeDetails",
      "outputs": [
        {
          "components": [
            {
              "internalType": "uint256",
              "name": "crime_id",
              "type": "uint256"
            },
            {
              "internalType": "string",
              "name": "timestamp",
              "type": "string"
            },
            {
              "internalType": "string",
              "name": "offense_code",
              "type": "string"
            },
            {
              "internalType": "string",
              "name": "description",
              "type": "string"
            }
          ],
          "internalType": "struct SimpleStorage.CrimeDetails[]",
          "name": "",
          "type": "tuple[]"
        }
      ],
      "payable": false,
      "stateMutability": "view",
      "type": "function"
    }
  ],
  "bytecode": "0x608060405234801561001057600080fd5b5061104b806100206000396000f3fe608060405234801561001057600080fd5b50600436106100575760003560e01c80633cb4c1cb1461005c578063644f30de1461008f57806398231bc9146100ad578063e9a51a77146100dd578063fdb917ed14610110575b600080fd5b61007660048036036100719190810190610b42565b61012e565b6040516100869493929190610e16565b60405180910390f35b610097610391565b6040516100a49190610dd9565b60405180910390f35b6100c760048036036100c29190810190610b6b565b610630565b6040516100d49190610dfb565b60405180910390f35b6100f760048036036100f29190810190610b42565b61072a565b6040516101079493929190610e70565b60405180910390f35b61011861092f565b6040516101259190610dfb565b60405180910390f35b600060608060606000858154811061014257fe5b9060005260206000209060040201600001546000868154811061016157fe5b90600052602060002090600402016001016000878154811061017f57fe5b90600052602060002090600402016002016000888154811061019d57fe5b9060005260206000209060040201600301828054600181600116156101000203166002900480601f0160208091040260200160405190810160405280929190818152602001828054600181600116156101000203166002900480156102435780601f1061021857610100808354040283529160200191610243565b820191906000526020600020905b81548152906001019060200180831161022657829003601f168201915b50505050509250818054600181600116156101000203166002900480601f0160208091040260200160405190810160405280929190818152602001828054600181600116156101000203166002900480156102df5780601f106102b4576101008083540402835291602001916102df565b820191906000526020600020905b8154815290600101906020018083116102c257829003601f168201915b50505050509150808054600181600116156101000203166002900480601f01602080910402602001604051908101604052809291908181526020018280546001816001161561010002031660029004801561037b5780601f106103505761010080835404028352916020019161037b565b820191906000526020600020905b81548152906001019060200180831161035e57829003601f168201915b5050505050905093509350935093509193509193565b6060806000805490506040519080825280602002602001820160405280156103d357816020015b6103c061093b565b8152602001906001900390816103b85790505b50905060008090505b6000805490508110156106285760008082815481106103f757fe5b906000526020600020906004020190508060405180608001604052908160008201548152602001600182018054600181600116156101000203166002900480601f0160208091040260200160405190810160405280929190818152602001828054600181600116156101000203166002900480156104b65780601f1061048b576101008083540402835291602001916104b6565b820191906000526020600020905b81548152906001019060200180831161049957829003601f168201915b50505050508152602001600282018054600181600116156101000203166002900480601f0160208091040260200160405190810160405280929190818152602001828054600181600116156101000203166002900480156105585780601f1061052d57610100808354040283529160200191610558565b820191906000526020600020905b81548152906001019060200180831161053b57829003601f168201915b50505050508152602001600382018054600181600116156101000203166002900480601f0160208091040260200160405190810160405280929190818152602001828054600181600116156101000203166002900480156105fa5780601f106105cf576101008083540402835291602001916105fa565b820191906000526020600020905b8154815290600101906020018083116105dd57829003601f168201915b50505050508152505083838151811061060f57fe5b60200260200101819052505080806001019150506103dc565b508091505090565b60008080548091906001016106459190610963565b508460006001600080549050038154811061065c57fe5b9060005260206000209060040201600001819055508360006001600080549050038154811061068757fe5b906000526020600020906004020160010190805190602001906106ab929190610995565b50826000600160008054905003815481106106c257fe5b906000526020600020906004020160020190805190602001906106e6929190610995565b50816000600160008054905003815481106106fd57fe5b90600052602060002090600402016003019080519060200190610721929190610995565b50949350505050565b6000818154811061073757fe5b9060005260206000209060040201600091509050806000015490806001018054600181600116156101000203166002900480601f0160208091040260200160405190810160405280929190818152602001828054600181600116156101000203166002900480156107e95780601f106107be576101008083540402835291602001916107e9565b820191906000526020600020905b8154815290600101906020018083116107cc57829003601f168201915b505050505090806002018054600181600116156101000203166002900480601f0160208091040260200160405190810160405280929190818152602001828054600181600116156101000203166002900480156108875780601f1061085c57610100808354040283529160200191610887565b820191906000526020600020905b81548152906001019060200180831161086a57829003601f168201915b505050505090806003018054600181600116156101000203166002900480601f0160208091040260200160405190810160405280929190818152602001828054600181600116156101000203166002900480156109255780601f106108fa57610100808354040283529160200191610925565b820191906000526020600020905b81548152906001019060200180831161090857829003601f168201915b5050505050905084565b60008080549050905090565b6040518060800160405280600081526020016060815260200160608152602001606081525090565b8154818355818111156109905760040281600402836000526020600020918201910161098f9190610a15565b5b505050565b828054600181600116156101000203166002900490600052602060002090601f016020900481019282601f106109d657805160ff1916838001178555610a04565b82800160010185558215610a04579182015b82811115610a035782518255916020019190600101906109e8565b5b509050610a119190610a6c565b5090565b610a6991905b80821115610a6557600080820160009055600182016000610a3c9190610a91565b600282016000610a4c9190610a91565b600382016000610a5c9190610a91565b50600401610a1b565b5090565b90565b610a8e91905b80821115610a8a576000816000905550600101610a72565b5090565b90565b50805460018160011615610100020316600290046000825580601f10610ab75750610ad6565b601f016020900490600052602060002090810190610ad59190610a6c565b5b50565b600082601f830112610aea57600080fd5b8135610afd610af882610ef7565b610eca565b91508082526020830160208301858383011115610b1957600080fd5b610b24838284610f9e565b50505092915050565b600081359050610b3c81610ff1565b92915050565b600060208284031215610b5457600080fd5b6000610b6284828501610b2d565b91505092915050565b60008060008060808587031215610b8157600080fd5b6000610b8f87828801610b2d565b945050602085013567ffffffffffffffff811115610bac57600080fd5b610bb887828801610ad9565b935050604085013567ffffffffffffffff811115610bd557600080fd5b610be187828801610ad9565b925050606085013567ffffffffffffffff811115610bfe57600080fd5b610c0a87828801610ad9565b91505092959194509250565b6000610c228383610d4a565b905092915050565b6000610c3582610f33565b610c3f8185610f61565b935083602082028501610c5185610f23565b8060005b85811015610c8d5784840389528151610c6e8582610c16565b9450610c7983610f54565b925060208a01995050600181019050610c55565b50829750879550505050505092915050565b6000610caa82610f49565b610cb48185610f83565b9350610cc4818560208601610fad565b610ccd81610fe0565b840191505092915050565b6000610ce382610f3e565b610ced8185610f72565b9350610cfd818560208601610fad565b610d0681610fe0565b840191505092915050565b6000610d1c82610f3e565b610d268185610f83565b9350610d36818560208601610fad565b610d3f81610fe0565b840191505092915050565b6000608083016000830151610d626000860182610dbb565b5060208301518482036020860152610d7a8282610cd8565b91505060408301518482036040860152610d948282610cd8565b91505060608301518482036060860152610dae8282610cd8565b9150508091505092915050565b610dc481610f94565b82525050565b610dd381610f94565b82525050565b60006020820190508181036000830152610df38184610c2a565b905092915050565b6000602082019050610e106000830184610dca565b92915050565b6000608082019050610e2b6000830187610dca565b8181036020830152610e3d8186610c9f565b90508181036040830152610e518185610c9f565b90508181036060830152610e658184610c9f565b905095945050505050565b6000608082019050610e856000830187610dca565b8181036020830152610e978186610d11565b90508181036040830152610eab8185610d11565b90508181036060830152610ebf8184610d11565b905095945050505050565b6000604051905081810181811067ffffffffffffffff82111715610eed57600080fd5b8060405250919050565b600067ffffffffffffffff821115610f0e57600080fd5b601f19601f8301169050602081019050919050565b6000819050602082019050919050565b600081519050919050565b600081519050919050565b600081519050919050565b6000602082019050919050565b600082825260208201905092915050565b600082825260208201905092915050565b600082825260208201905092915050565b6000819050919050565b82818337600083830152505050565b60005b83811015610fcb578082015181840152602081019050610fb0565b83811115610fda576000848401525b50505050565b6000601f19601f8301169050919050565b610ffa81610f94565b811461100557600080fd5b5056fea365627a7a72315820a65d5fc6fba5d1e2f5aa776de01bd9726774114cf1bde185fb85229a4a4425006c6578706572696d656e74616cf564736f6c63430005100040",
  "source": "pragma solidity ^0.5.0;\npragma experimental ABIEncoderV2;\n\ncontract SimpleStorage {  \n  struct CrimeDetails {\n        uint crime_id;\n        string timestamp;\n        string offense_code;\n        string description;        \n    }\n    \n    CrimeDetails[] public crime;    \n\n    function addCrimeReport(uint _crime_id, string memory _timestamp, string memory _offense_code, string memory _description) public returns(uint) {\n        crime.length++;\n        crime[crime.length-1].crime_id = _crime_id;\n        crime[crime.length-1].timestamp = _timestamp;\n        crime[crime.length-1].offense_code = _offense_code;\n        crime[crime.length-1].description = _description;\n        //return crime.length;        \n    }\n    \n    function getCrimeCount() public view returns(uint) {\n        return crime.length;\n    }\n    \n    function getCrimeBlock(uint index) public view returns (uint, string memory, string memory, string memory)\n    {\n        return (crime[index].crime_id, crime[index].timestamp, crime[index].offense_code, crime[index].description);\n    }\n    function getAllCrimeDetails() public view returns (CrimeDetails[] memory)\n    {\n        CrimeDetails[] memory id = new CrimeDetails[](crime.length);\n        for (uint i = 0; i < crime.length; i++) {\n            CrimeDetails storage tempCrime = crime[i];\n            id[i] = tempCrime;\n        }\n        return id;\n    }\n}\n",
  "sourcePath": "C:\\Users\\user\\Desktop\\Crime-Records-Blockchain-master\\contracts\\SimpleStorage.sol",
  "compiler": {
    "name": "solc",
    "version": "0.5.16+commit.9c3226ce.Emscripten.clang"
  },
  "schemaVersion": "3.4.4",
  "updatedAt": "2022-01-14T08:32:08.712Z",
  "networkType": "ethereum",
  "devdoc": {
    "methods": {}
  },
  "userdoc": {
    "methods": {}
  }
}